:020000040800F2
:1000000000500020251D0008191B00081B1B0008BC
:100010001D1B00081F1B0008211B0008000000001A
:10002000000000000000000000000000231B00088A
:10003000251B000800000000271B0008291B0008E2
:100040006D1D00086D1D00086D1D00086D1D000868
:100050006D1D00086D1D00086D1D00086D1D000858
:100060006D1D00086D1D00086D1D00086D1D000848
:100070006D1D00086D1D00086D1D00086D1D000838
:100080006D1D00086D1D00086D1D00086D1D000828
:100090006D1D00086D1D00086D1D00086D1D000818
:1000A0006D1D00086D1D00086D1D00086D1D000808
:1000B0006D1D00086D1D00086D1D00086D1D0008F8
:1000C0006D1D00086D1D00086D1D00086D1D0008E8
:1000D0006D1D00086D1D00086D1D00086D1D0008D8
:1000E0006D1D00086D1D00086D1D0008000000005A
:1000F0000000000000000000000000000000000000
:0C01000000000000000000005FF808F1A3
:10010C0010B5054C237833B9044B13B10448AFF345
:10011C0000800123237010BD880000200000000027
:10012C00E825000808B5034B1BB103490348AFF39E
:10013C00008008BD000000008C000020E8250008AD
:10014C0010B504460E4B18784FF47A73B3FBF0F3EA
:10015C000C4A1068B0FBF3F000F06EFB68B90F2C82
:10016C0001D901200AE0002221464FF0FF3000F0B7
:10017C002FFB034B5C60002000E0012010BD00BF92
:10018C00000000202000002008B5074A136843F047
:10019C0010031360032000F009FB0020FFF7D0FFD1
:1001AC0001F02AFC002008BD00200240034A11681F
:1001BC00034B1B780B441360704700BFB400002046
:1001CC0000000020014B1868704700BFB4000020ED
:1001DC0038B50446FFF7F6FF0546B4F1FF3F02D0F1
:1001EC00044B1B781C44FFF7EDFF401BA042FAD3D5
:1001FC0038BD00BF00000020F0B583B005460C46AA
:10020C0000230193FFF7DEFF2B689A6812F4807FBE
:10021C0023D106465A6812F4807F03D1DB6A13F4AB
:10022C00700F24D04B4B1F68022000F0AFFFB7FBC0
:10023C00F0F02B681969484A11422FD1D96802F1A4
:10024C005C4211422AD11969444A114239D1DA6807
:10025C00434B1A4237D029273AE0AB6A43F02003CC
:10026C00AB62002385F82430012003B0F0BD2B686D
:10027C001B6813F0020F48D1B4F1FF3FF7D024B143
:10028C00FFF7A0FF801BA042F1D9AB6A43F0040337
:10029C00AB62002385F824300320E6E719692F4A66
:1002AC00114204D1D96802F16E4211420DD0196984
:1002BC002C4A0A405AB9DA682A4B13405BB1FC2726
:1002CC0006E0292704E0142702E0542700E0FC276D
:1002DC0007FB00F704E05427FAE7019B0133019375
:1002EC00019BBB4211D2B4F1FF3FF6D024B1FFF712
:1002FC0069FF801BA042F0D9AB6A43F00403AB62E8
:10030C00002385F824300320AFE72B686FF012022E
:10031C001A60AB6A43F40073AB622B689B6803F4FE
:10032C006023B3F5602F01D000209EE7EB686BB91A
:10033C00AB6A23F48073AB62AB6A13F4805F07D1B2
:10034C00AB6A43F00103AB6200208EE700208CE720
:10035C0000208AE72000002024499224922449128C
:10036C0092244900499224000368D86C704700001D
:10037C0030B482B00023019390F82430012B00F0AC
:10038C008B800246012380F824304B68062B29D839
:10039C000568686B03EB8303053B1F249C4020EA34
:1003AC0004000C6804FA03F303436B630B68092B1A
:1003BC0038D91568E86803EB43031E3B07249C40BF
:1003CC0020EA04008C6804FA03F30343EB600B6827
:1003DC00103B012B34D90020002382F8243002B0CA
:1003EC0030BC70470C2B0ED80568286B03EB8303CD
:1003FC00233B1F249C4020EA04000C6804FA03F3FE
:10040C0003432B63D2E70568E86A03EB8303413BA4
:10041C001F249C4020EA04000C6804FA03F30343F5
:10042C00EB62C3E71568286903EB430307249C4080
:10043C0020EA04008C6804FA03F303432B61C6E73B
:10044C0013681648834205D0936A43F020039362E5
:10045C000120C1E7986810F4000F1BD1986840F494
:10046C00000098600B68102B01D00020B4E70C4BF7
:10047C001B680C49A1FB03139B0C03EB8303590072
:10048C00019102E0019B013B0193019B002BF9D1EF
:10049C000020A1E700209FE70220A0E700240140F4
:1004AC002000002083DE1B4330B583B00023019372
:1004BC0003689A6812F0010F2ED19A6842F001027B
:1004CC009A60174B1B68174AA2FB03239B0C0193E2
:1004DC0002E0019B013B0193019B002BF9D10446E7
:1004EC00FFF770FE054623689B6813F0010F11D1CE
:1004FC00FFF768FE401B0228F5D9A36A43F01003EE
:10050C00A362E36A43F00103E362002384F824301E
:10051C00012002E0002000E0002003B030BD00BF4D
:10052C002000002083DE1B4390F82430012B6AD07E
:10053C0010B50446012380F82430FFF7B5FF0246BE
:10054C0000285BD1A36A23F4407323F0010343F426
:10055C008073A36223682D498B4227D0A16A21F4B2
:10056C008011A162596811F4806F05D0A16A21F441
:10057C00405141F48051A162A16A11F4805F2BD0EB
:10058C00E16A21F00601E162002184F824106FF089
:10059C00020119602368996801F46021B1F5602F9C
:1005AC001DD0996841F4801199602AE0A1F5806111
:1005BC00496811F4702FD1D0A16A41F48011A16265
:1005CC001349496811F4806FD6D0A16A21F44051C7
:1005DC0041F48051A162CFE70021E162D4E70B49DD
:1005EC008B4204D0996841F4A001996009E0A1F50F
:1005FC008061496811F4702FD3D1F3E7002384F89C
:10060C002430104610BD02221046704700280140CD
:10061C000024014038B503689A6812F0010F01D12B
:10062C00002038BD04469A6822F001029A60FFF758
:10063C00C9FD054623689B6813F0010F0ED0FFF728
:10064C00C1FD401B0228F5D9A36A43F01003A36235
:10065C00E36A43F00103E3620120E2E70020E0E7F4
:10066C0000287FD038B50446836A002B33D020464F
:10067C00FFF7D0FFA36A13F010036DD100286BD1E4
:10068C00A26A22F4885222F0020242F00202A26212
:10069C006268E1690A43E56842EA4502A168B1F57E
:1006AC00807F21D001291CD0616901291FD02568C8
:1006BC00696821F469410B436B6021688D682A4B92
:1006CC002B4013438B60A368B3F5807F20D0012BA4
:1006DC001ED000211FE0C36280F8243001F0AEF977
:1006EC00C5E74FF48073DFE74FF48073DCE735B96F
:1006FC00A169013943EA413343F40063D7E7A16AA6
:10070C0041F02001A162E16A41F00101E162CEE712
:10071C002369013B19052568EB6A23F470030B432D
:10072C00EB6223689968114B0B409A420BD0A36A79
:10073C0023F0120343F01003A362E36A43F00103B6
:10074C00E36201200DE00023E362A36A23F00303BC
:10075C0043F00103A36204E0A36A43F01003A36215
:10076C00012038BD01207047FDF7E1FFFE0E1FFF91
:10077C0090F82430012B15D010B50446012380F8D5
:10078C002430FFF747FF024638B9A36A23F4885395
:10079C0023F0010343F00103A362002384F8243007
:1007AC00104610BD0222104670470000074AD3685D
:1007BC0023F4E0631B041B0C000200F4E0601843FC
:1007CC0040F0BF6040F40030D060704700ED00E0B6
:1007DC0030B4174BDB68C3F30223C3F10704042CBA
:1007EC0028BF04241D1D062D18D9033B4FF0FF35DF
:1007FC0005FA04F421EA0401994005FA03F322EA0C
:10080C000303194300280BDB0901C9B200F1604056
:10081C0000F5614080F8001330BC70470023E5E719
:10082C0000F00F000901C9B2024B1954F4E700BFE4
:10083C0000ED00E014ED00E00138B0F1807F0AD249
:10084C00064B5860064AF02182F82310002098606D
:10085C0007221A6070470120704700BF10E000E0CB
:10086C0000ED00E0F0B482B000263546A1E0002C8B
:10087C0059D0012C00D1CE68FF2B68D88446FF2BB1
:10088C0068D8AC00DCF800200F27A74022EA07024A
:10089C0006FA04F42243CCF800204A6812F0805F78
:1008AC0000F086805E4A946944F001049461926978
:1008BC0002F001020192019AAC08A71C594A52F8A5
:1008CC00272005F00307BF004FF00F0C0CFA07FCB4
:1008DC0022EA0C0C544A904242D002F580629042BB
:1008EC007FD002F5806290427DD002F5806290420A
:1008FC0034D0042235E04D4FBC4214D00BD94C4FB0
:10090C00BC4210D007F58037BC420CD0A7F580173D
:10091C00BC42B1D107E0A7F58017BC4203D007F564
:10092C008037BC42A8D18C687CB1012C08D04261C4
:10093C000826A1E7CE6808369EE7CE680C369BE702
:10094C000261082698E7002696E7042694E700F152
:10095C00040C94E7A5F10804A40093E7032200E03B
:10096C000022BA4042EA0C0202342E4F47F82420EF
:10097C004A6812F4803F38D02E4C22681A43226009
:10098C004A6812F4003F36D02A4C62681A436260FF
:10099C004A6812F4801F34D0264CA2681A43A26015
:1009AC004A6812F4001F32D0224CE2681343E36011
:1009BC0001350F2D31D80122AA400B6813409A4201
:1009CC00F6D14C68122CB8D095D8022CB2D07FF648
:1009DC004EAF032CB7D0112C7FF44EAFCE6804363B
:1009EC004AE70122BDE70222BBE7124C226822EA49
:1009FC0003022260C4E70F4C626822EA03026260C1
:100A0C00C6E70C4CA26822EA0302A260C8E7094CB4
:100A1C00E26822EA0303E360CAE702B0F0BC704765
:100A2C0000100240000001400008014000002110AD
:100A3C00000031100004014082B0084B1B68084ACA
:100A4C00A2FB03235B0A00FB03F0019000BF019B98
:100A5C005A1E0192002BF9D102B0704720000020E1
:100A6C00D34D621070B582B00446036813F0010FC9
:100A7C002CD0AB4B5B6803F00C03042B1DD0A84BA4
:100A8C005B6803F00C03082B12D06368B3F5803F4E
:100A9C0041D0002B55D103F1804303F504331A6880
:100AAC0022F480321A601A6822F480221A6037E02D
:100ABC009B4B5B6813F4803FE7D0994B1B6813F496
:100ACC00003F03D06368002B00F0AE81236813F065
:100ADC00020F76D0924B5B6813F00C0F5FD0904BEB
:100AEC005B6803F00C03082B54D02369002B00F037
:100AFC008A808C4B01221A60FFF764FB0546884BF9
:100B0C001B6813F0020F75D1FFF75CFB401B02282A
:100B1C00F5D903208BE1824A136843F480331360C8
:100B2C00636843B3FFF74EFB05467D4B1B6813F41C
:100B3C00003FCBD1FFF746FB401B6428F5D90320BF
:100B4C0075E1B3F5A02F09D0754B1A6822F48032E9
:100B5C001A601A6822F480221A60E1E703F18043DC
:100B6C00A3F53C331A6842F480221A601A6842F4E6
:100B7C0080321A60D4E7FFF725FB0546684B1B68EB
:100B8C0013F4003FA2D0FFF71DFB401B6428F5D9DE
:100B9C0003204CE1624B5B6813F4803FA5D1604BA2
:100BAC001B6813F0020F04D02369012B01D0012024
:100BBC003DE15B4A136823F0F803616943EAC10322
:100BCC001360236813F0080F32D0A369002B5BD09D
:100BDC00554B01221A60FFF7F5FA0546504B5B6A3C
:100BEC0013F0020F21D1FFF7EDFA401B0228F5D9C3
:100BFC0003201CE14A4A136823F0F803616943EAB5
:100C0C00C1031360DDE7474B00221A60FFF7DAFAE5
:100C1C000546434B1B6813F0020FD2D0FFF7D2FAF4
:100C2C00401B0228F5D9032001E10120FFF704FF46
:100C3C00236813F0040F00F09780394BDB6913F035
:100C4C00805F33D1364BDA6942F08052DA61DB696E
:100C5C0003F080530193019B0125344B1B6813F463
:100C6C00807F25D0E368012B36D0002B4CD103F1CB
:100C7C00804303F504331A6A22F001021A621A6ADD
:100C8C0022F004021A622CE0274B00221A60FFF7B4
:100C9C0099FA0546224B5B6A13F0020FC8D0FFF796
:100CAC0091FA401B0228F5D90320C0E00025D4E7B7
:100CBC001E4A136843F480731360FFF783FA0646E9
:100CCC001A4B1B6813F4807FCCD1FFF77BFA801B87
:100CDC006428F5D90320AAE0114A136A43F00103F2
:100CEC001362E36873B3FFF76DFA06460C4B1B6A8D
:100CFC0013F0020F37D1FFF765FA801B41F28833EE
:100D0C009842F3D9032092E0052B11D0044B1A6AB8
:100D1C0022F001021A621A6A22F004021A62E0E757
:100D2C000010024000004242800442420070004029
:100D3C00414B1A6A42F004021A621A6A42F001022A
:100D4C001A62CEE7FFF73EFA06463B4B1B6A13F0DE
:100D5C00020F08D0FFF736FA801B41F28833984215
:100D6C00F3D9032063E0E5B9E369002B5ED0324A86
:100D7C00526802F00C02082A5BD0022B17D02F4BC2
:100D8C0000221A60FFF71EFA04462B4B1B6813F067
:100D9C00007F47D0FFF716FA001B0228F5D9032075
:100DAC0045E0254AD36923F08053D361DCE7234B1C
:100DBC0000221A60FFF706FA05461F4B1B6813F05A
:100DCC00007F06D0FFF7FEF9401B0228F5D903205F
:100DDC002DE0236AB3F5803F1AD017494B6823F4F2
:100DEC007413226A606A024313434B60134B012253
:100DFC001A60FFF7E7F904460F4B1B6813F0007FEE
:100E0C000ED1FFF7DFF9001B0228F5D903200EE005
:100E1C00094A536823F40033A1680B435360DCE7A1
:100E2C00002004E0002002E0012000E0002002B0DD
:100E3C0070BD0120FBE700BF001002406000424281
:100E4C0010B487B0164C94E80F000DF1180C0CE997
:100E5C000F00238AADF80430124B5B6803F00C02D0
:100E6C00082A1AD1C3F38342624412F8102C13F4EB
:100E7C00803F05D10C4800FB02F007B010BC704756
:100E8C00084B5B68C3F34043634413F8143C0748B6
:100E9C0000FB02F0B0FBF3F0EFE70448EDE700BF16
:100EAC00002600080010024000093D0000127A00E4
:100EBC00624B1B6803F007038B420CD25F4A13682A
:100ECC0023F007030B431360136803F007038B42F3
:100EDC0001D00120704770B5036813F0020F17D0D2
:100EEC0013F0040F04D0564A536843F4E063536084
:100EFC00036813F0080F04D0514A536843F460534D
:100F0C0053604F4A536823F0F003846823435360C3
:100F1C000D460446036813F0010F52D04368012BB1
:100F2C0023D0022B28D0464A126812F0020F00F090
:100F3C00828043494A6822F0030213434B60FFF757
:100F4C0041F906466368012B1DD0022B2AD03C4B7D
:100F5C005B6813F00C0F34D0FFF734F9801B41F2AF
:100F6C0088339842F3D9032064E0354A126812F4AE
:100F7C00003FDED101205DE0314A126812F0007FA3
:100F8C00D7D1012056E02E4B5B6803F00C03042BE9
:100F9C0017D0FFF717F9801B41F288339842F2D92A
:100FAC00032047E0264B5B6803F00C03082B08D0AA
:100FBC00FFF708F9801B41F288339842F2D90320DD
:100FCC0038E01E4B1B6803F00703AB420CD91B4ADD
:100FDC00136823F007032B431360136803F0070314
:100FEC00AB4201D0012025E0236813F0040F06D09A
:100FFC00134A536823F4E063E1680B43536023689E
:10100C0013F0080F07D00E4A536823F4605321697C
:10101C0043EAC1035360FFF713FF094B5B68C3F34B
:10102C000313084AD35CD840074B18600020FFF725
:10103C0087F8002070BD0120FCE700BF00200240B3
:10104C00001002403C4E000820000020014B1868A4
:10105C00704700BF2000002008B5FFF7F7FF044BD6
:10106C005B68C3F3C223034AD35CD84008BD00BFFE
:10107C00001002404C4E000870B582B00446036864
:10108C0013F0010F34D03E4BDB6913F0805F48D175
:10109C003B4BDA6942F08052DA61DB6903F0805332
:1010AC000193019B0125374B1B6813F4807F3AD0C9
:1010BC00334B1B6A13F4407311D0626802F4407214
:1010CC009A420CD02E4A136A23F440702E49012602
:1010DC000E6000260E60106213F0010F37D1284A03
:1010EC00136A23F4407361680B431362002D3FD1E4
:1010FC00236813F0020F06D0214A536823F44043AF
:10110C00A1680B435360236813F0100F35D01C4AB1
:10111C00536823F48003E1680B435360002002B052
:10112C0070BD0025BFE7174A136843F48073136042
:10113C00FFF748F80646134B1B6813F4807FB7D1B2
:10114C00FFF740F8801B6428F5D90320E7E7FFF789
:10115C0039F806460A4B1B6A13F0020FBFD1FFF792
:10116C0031F8801B41F288339842F3D90320D6E73B
:10117C00D36923F08053D361BAE70020CFE700BFD7
:10118C0000100240007000404004424230B587B06D
:10119C000546384C94E80F000DF1180C0CE90F00C3
:1011AC00238AADF80430022D50D0102D03D0012D20
:1011BC002BD0002054E0304B5A681B6813F0807F12
:1011CC0050D0C2F3834306A90B4413F8100C12F44D
:1011DC00803F16D0284B5B68C3F340430B4413F895
:1011EC00142C264BB3FBF2F300FB03F0224B5B6891
:1011FC0013F4800F34D14000214BA3FB0030400886
:10120C002EE0204B03FB00F0F0E71B4B1B6A40F277
:10121C0002321A40B2F5817F26D003F44073B3F545
:10122C00007F04D0B3F5407F09D0002018E0124AAB
:10123C00526A12F0020FF5D049F6404010E00E4B06
:10124C001B6813F4003F12D1002009E0FFF704FFE4
:10125C00094B5B68C3F3813301335B00B0FBF3F0E4
:10126C0007B030BD0020FBE74FF40040F8E74FF229
:10127C002440F5E7142600080010024000127A0002
:10128C00ABAAAAAA00093D0000283CD010B5044620
:10129C000023836290F85130002B31D0022384F864
:1012AC0051302268136823F0400313606368A2680E
:1012BC001343E26813432269134362691343A2691F
:1012CC0002F400721343E2691343226A1343A16AC6
:1012DC0022680B431360638B03F00403616A22687A
:1012EC000B4353602368E26A1A612268D36923F4C2
:1012FC000063D36100206065012384F8513010BD78
:10130C0000F0CAFBCAE70120704700000E4A93693F
:10131C0043F0080393610D4B1A6842F033321A60A4
:10132C001A6802F033321A605968094A0A435A6043
:10133C005968084A0A405A601A6942F4C05242F08D
:10134C0007021A61704700BF00100240000C0140F8
:10135C00333303003333F3FF0B4B02221A614FF08C
:10136C0000621A61DA6822F4FF621205120D42EA79
:10137C00C000D8604FF480321A6101221A614FF418
:10138C0000621A61704700BF000C014010B50446A2
:10139C00000AFFF7E1FFE0B2FFF7DEFF10BD00002F
:1013AC000B4B4FF400321A614FF000621A61DA688D
:1013BC0022F4FF621205120D42EAC000D8604FF40D
:1013CC0080321A6101221A614FF400621A6170476F
:1013DC00000C014038B5084C042525616420FEF74B
:1013EC00F7FE4FF4802323616420FEF7F1FE2561A4
:1013FC006420FEF7EDFE38BD000C014008B5FFF788
:10140C0085FF0120FEF7E4FEFFF7E4FF6420FEF702
:10141C00DFFE1120FFF7C4FF6420FEF7D9FED020B9
:10142C00FFF7BEFF0720FFF797FF4220FFF794FF5F
:10143C001820FFF791FFD120FFF7B2FF0020FFF734
:10144C008BFF0720FFF788FF1020FFF785FFD220C6
:10145C00FFF7A6FF0120FFF77FFF0220FFF77CFFBD
:10146C00C020FFF79DFF1020FFF776FF3B20FFF712
:10147C0073FF0020FFF770FF0020FFF76DFF0220C5
:10148C00FFF76AFF0120FFF767FFC520FFF788FF12
:10149C000020FFF761FFB320FFF782FF0020FFF76A
:1014AC005BFF0020FFF758FF0020FFF755FF0020DF
:1014BC00FFF752FF3420FFF773FFC120FFF770FFD7
:1014CC001020FFF749FF1020FFF746FF2220FFF7FF
:1014DC0043FFC820FFF764FF0020FFF73DFF3220D9
:1014EC00FFF73AFF3620FFF737FF4520FFF734FFB1
:1014FC000620FFF731FF1620FFF72EFF3720FFF7EE
:10150C002BFF7520FFF728FF7720FFF725FF5420CE
:10151C00FFF722FF0C20FFF71FFF0020FFF71CFF37
:10152C003620FFF73DFFEA20FFF716FF1320FFF7E9
:10153C0037FF3A20FFF734FF0520FFF70DFF292076
:10154C00FFF72EFF6420FEF743FE6420FEF740FEFB
:10155C0008BDF8B507460D4616461C462A20FFF76F
:10156C001FFFB8B2FFF712FFB0B2FFF70FFF2B202F
:10157C00FFF716FFA8B2FFF709FFA0B2FFF706FFAF
:10158C00F8BD70B5054640F23F1340F2DF12002162
:10159C000846FFF7DEFF2C20FFF702FF00260AE0CB
:1015AC00280AFFF7D9FEE8B2FFF7D6FE0134B4F5EE
:1015BC00A07FF5DB0136B6F5F07F01DA0024F6E703
:1015CC0070BD10B514460B460246FFF7C2FF2C2027
:1015DC00FFF7E6FE200AFFF7BFFEE0B2FFF7BCFE06
:1015EC0010BD82B02DE9F04F85B0814688469346F8
:1015FC000F93BDF844200192BDF848200292DEB250
:10160C008219C3F3072ACDF80CA001EB0A03013BA6
:10161C00013AFFF79EFF002517E0029A08EB05013F
:10162C0009EB0400FFF7CDFF0134A6420CD907FAF1
:10163C0004F313F4004FF0D0019A08EB050109EB09
:10164C000400FFF7BEFFEFE70135AA4509D9ABF15E
:10165C002003039A03FB0253109A32F813700024F0
:10166C00E3E705B0BDE8F04F02B0704782B02DE95A
:10167C00F04184B00446884615460B93BDF834708F
:10168C00BDF838600DE0029601970C9B00930B9B04
:10169C0041462046FFF7A5FF9DF82C301C44A4B210
:1016AC0001352A78002AEED104B0BDE8F04102B031
:1016BC007047000084B0134B9A6942F010029A6193
:1016CC009A6902F010020092009A9A6942F0200284
:1016DC009A619A6902F020020192019A9A6942F089
:1016EC0004029A619A6902F004020292029A9A69BF
:1016FC0042F008029A619B6903F008030393039B71
:10170C0004B070470010024008B50C480C4B036045
:10171C004FF48273436000238360C36003614361B1
:10172C004FF4007282612022C261036243628362C1
:10173C000A23C362FFF7A8FD08BD00BF54010020B7
:10174C000030014070B584B00023019302930393E1
:10175C00114C124A22604FF48072A2600126E6609E
:10176C0063614FF46022E2616360022525612046CB
:10177C00FEF776FF0823019302960723039301A932
:10178C002046FEF7F5FD09230193029501A9204699
:10179C00FEF7EEFD04B070BDB8000020002801403B
:1017AC0030B595B000240C940D940F9410940594BE
:1017BC000694079408940994019402940394049455
:1017CC0001220A924FF480330B930E92022511954D
:1017DC0012934FF4E01313930AA8FFF743F90F2366
:1017EC000593069507944FF4806308930994294652
:1017FC0005A8FFF75DFB01954FF40043039301A887
:10180C00FFF73AFC15B030BD80B584B0FEF7BCFCD8
:10181C00FFF7C6FFFFF74EFFFFF776FFFFF792FFCC
:10182C00FFF7ECFD6420FEF7D3FC4FF47840FFF794
:10183C00A8FE4FF4FC60FFF7A4FE1F20FFF7A1FEEB
:10184C004FF61F00FFF79DFE4FF6E070FFF799FE75
:10185C0040F2FF70FFF795FE4FF6FF70FFF791FE19
:10186C0045F25550FFF78DFE0020FFF78AFE5B48CE
:10187C00FEF75AFE0020FFF784FE594E304600F06A
:10188C0095F93288DFF86C91564C4946204600F0A9
:10189C0093FA554D4FF01F08CDF808804FF6FF779F
:1018AC0001976B6800932B68224614213220FFF7B6
:1018BC00DDFE72884946204600F07EFACDF808809D
:1018CC0001976B6800932B68224678213220FFF732
:1018DC00CDFEB2884946204600F06EFACDF808805D
:1018EC0001976B6800932B6822461421C820FFF7E0
:1018FC00BDFEF2884946204600F05EFACDF808801D
:10190C0001976B6800932B6822467821C820FFF75B
:10191C00ADFE4FF47A70FEF75BFC0020FFF731FE52
:10192C0002E00020FEF754FC2D4E304600F03EF94C
:10193C003288DFF8C0902B4C4946204600F03CFA28
:10194C00294D4FF01F08CDF808804FF6FF7701970F
:10195C006B6800932B68224614213220FFF786FE19
:10196C0072884946204600F027FACDF80880019786
:10197C006B6800932B68224678213220FFF776FEA5
:10198C00B2884946204600F017FACDF80880019736
:10199C006B6800932B6822464FF4A0713220FFF73E
:1019AC0065FEB3889BB240F6D7629342B9D8738870
:1019BC009BB20E48A0FB03101B1A00EB5300C0F3A4
:1019CC008F00318889B20A4BA3FB0131C9084FF44F
:1019DC00FC6219393238FFF7F4FDA2E7B800002099
:1019EC004C010020E800002018000020254992241A
:1019FC00A38B2EBA544E000882B00E4B9A6942F05B
:101A0C0001029A619A6902F001020092009ADA6965
:101A1C0042F08052DA61DB6903F080530193019B41
:101A2C00054A536823F0E06343F00073536002B03F
:101A3C00704700BF001002400000014000B587B0A5
:101A4C00002302930393049305930268104B9A426C
:101A5C0002D007B05DF804FB03F568439A6942F4C1
:101A6C0080629A619A6902F480620092009A9A6983
:101A7C0042F008029A619B6903F008030193019BF1
:101A8C0003230293039302A90248FEF7EBFEE0E75F
:101A9C0000280140000C014010B586B000230293D1
:101AAC000393049305930268164B9A4201D006B037
:101ABC0010BD03F560439A6942F480529A619A69A9
:101ACC0002F480520092009A9A6942F004029A61E0
:101ADC009B6903F004030193019BA023029302234F
:101AEC00039303230593084C02A92046FEF7BAFE84
:101AFC004023029300230393049302A92046FEF78C
:101B0C00B1FED4E700300140000801407047FEE709
:101B1C00FEE7FEE7FEE770477047704708B5FEF733
:101B2C0045FB08BD08B503460B4A126842B10A4A88
:101B3C00106803446A46934206D8074A136008BDEE
:101B4C00054A06491160F2E700F00CF90C2303601A
:101B5C004FF0FF30F3E700BFA4000020B8010020D5
:101B6C000F4B1A6842F001021A6059680D4A0A407C
:101B7C005A601A6822F0847222F480321A601A6851
:101B8C0022F480221A605A6822F4FE025A604FF442
:101B9C001F029A60044B4FF000629A60704700BFBE
:101BAC00001002400000FFF800ED00E038B50546DB
:101BBC00574B4FF400721A614FF400321A614FF018
:101BCC0080621A614FF480321A615A6822F44072B2
:101BDC005A605A6842F480625A601A6822F0030212
:101BEC001A601A6842F00C021A604A4C2046FEF742
:101BFC009BFC4FF0FF312046FEF7FEFA002874D014
:101C0C00434B5A6842F440725A605A6822F440625C
:101C1C005A601A6842F003021A601A6822F00C0229
:101C2C001A604FF480321A614FF480621A614FF0DF
:101C3C0000721A614FF400321A615A6822F03002B5
:101C4C005A605A6842F040025A601A6822F0300218
:101C5C001A601A6842F0C0021A600020FEF7B8FA47
:101C6C004FF0FF312B48FEF7C7FA002843D0294C20
:101C7C002046FEF77DFD264B5A6842F030025A6032
:101C8C005A6822F0C0025A601A6842F030021A6098
:101C9C001A6822F0C0021A601A6822F033021A6025
:101CAC001A6842F0CC021A604FF000721A614FF4BD
:101CBC0080621A612046FEF737FC4FF0FF31204658
:101CCC00FEF79AFAE8B11348FEF752FD00BF104B2D
:101CDC001A6842F033021A601A6822F0CC021A60B9
:101CEC001A6942F003021A6138BD2046FEF73CFB2C
:101CFC0080B2288084E70748FEF736FB80B2688004
:101D0C00B5E72046FEF730FB80B2A880DBE700BFCA
:101D1C00000C0140B8000020002103E00B4B5B5885
:101D2C00435004310A480B4B42189A42F6D30A4AE4
:101D3C0002E0002342F8043B084B9A42F9D3FFF728
:101D4C000FFF00F015F8FFF75FFD7047944E000889
:101D5C00000000208800002088000020B80100202E
:101D6C00FEE70000014B1868704700BF24000020FC
:101D7C0070B500250C4E0D4CA41BA410A54209D126
:101D8C0000F02CFC00250A4E0A4CA41BA410A54202
:101D9C0005D170BD56F8253098470135EEE756F859
:101DAC00253098470135F2E78C4E00088C4E000820
:101DBC008C4E0008904E00080EB46FF0004100B538
:101DCC009CB01DAB029006900791049108480949FC
:101DDC0053F8042B0591006802A9019300F066F8F2
:101DEC000022029B1A701CB05DF804EB03B0704724
:101DFC00240000200802FFFF2DE9F0478E68824680
:101E0C009E420C469046994637D88A8912F4906FB8
:101E1C0031D00223256809696F1A656905EB450500
:101E2C0095FBF3F509F101033B449D4238BF1D4678
:101E3C00530530D5294600F037FB064650B90C2324
:101E4C004FF0FF30CAF80030A38943F04003A38160
:101E5C00BDE8F0873A46216900F0B6FAA38923F46D
:101E6C00906343F08003A38126613E4426604E4676
:101E7C006561ED1BA5604E4500D94E463246414684
:101E8C00206800F0ACFAA36800209B1BA3602368B9
:101E9C001E442660DCE72A4600F060FB064600285C
:101EAC00E2D12169504600F0B3FAC8E72DE9F04FB2
:101EBC001D468B899DB01F0680460C4616460FD5D5
:101ECC000B696BB9402100F0EFFA2060206128B952
:101EDC000C23C8F800304FF0FF30C8E0402363619A
:101EEC000023099320238DF8293030234FF0010B68
:101EFC008DF82A30039537463D4615F8013B0BB15A
:101F0C00252B3ED1B7EB060A0BD053463246214661
:101F1C004046FFF771FF013000F0A480099B534449
:101F2C0009933B78002B00F09D8000234FF0FF328B
:101F3C00CDE90523049307938DF853301A932F465C
:101F4C00052217F8011B504800F030FA049BD0B959
:101F5C00D90644BF20228DF853201A0744BF2B22E8
:101F6C008DF853202A782A2A15D02F4600200A25CE
:101F7C00079A394611F8013B303B092B4DD9B8B1C2
:101F8C000FE02F46B8E7404A3D46801A0BFA00F0A6
:101F9C0018430490D3E7039A111D12680391002A89
:101FAC0001DB079204E0524243F0020307920493D0
:101FBC003B782E2B0CD17B782A2B33D1039B023709
:101FCC001A1D1B680392002BB8BF4FF0FF3305930B
:101FDC002E4D03223978284600F0E8F938B1402319
:101FEC00401B03FA00F0049B013703430493397838
:101FFC00062227487E1C8DF8281000F0D7F90028FF
:10200C0038D0244B13BB039B073323F0070308334F
:10201C000393099B4B4409936DE705FB02320120A6
:10202C000F46A6E700230A251946013705933846C3
:10203C0010F8012B303A092A03D9002BC8D005918E
:10204C00C6E705FB012101230746F0E703AB00932C
:10205C002246114B04A94046AFF30080B0F1FF3F7C
:10206C008146D6D1A3895B063FF535AF09981DB0E3
:10207C00BDE8F08F03AB00932246074B04A9404602
:10208C0000F082F8EAE700BF584E00085E4E0008E8
:10209C00624E000800000000051E00082DE9F04704
:1020AC0091461F468A680B6906469342B8BF134691
:1020BC00C9F8003091F843200C46DDF8208012B1AD
:1020CC000133C9F800302368990642BFD9F80030B3
:1020DC000233C9F80030256815F0060507D104F164
:1020EC00190AE368D9F800209B1AAB4229DC94F852
:1020FC0043302268003318BF012392062ED404F11A
:10210C00430239463046C047013021D02368E56888
:10211C0003F00603042B18BF0025D9F800204FF05C
:10212C00000908BFAD1AA368226908BF25EAE57546
:10213C009342C4BF9B1AED181A344D451AD1002096
:10214C0008E00123524639463046C047013003D1DE
:10215C004FF0FF30BDE8F0870135C2E73020E118C1
:10216C0081F843005A1C94F845102244023382F83B
:10217C004310C4E70123224639463046C04701309C
:10218C00E6D009F10109D8E72DE9F04301F1430C40
:10219C000C46097E85B06E291746064698460C9A61
:1021AC0000F0B38022D8632936D00AD8002900F079
:1021BC00B980582900F0838004F1420584F842105C
:1021CC0032E0642901D06929F6D12068136805062C
:1021DC0003F104012AD51B681160002B03DA2D22B0
:1021EC005B4284F843206F480A2239E0732900F0DF
:1021FC009D8008D86F2920D07029DDD1236843F049
:10220C002003236003E0752917D07829D4D17823D3
:10221C00654884F8453055E0136804F14205191DF2
:10222C001B68116084F8423001238CE01B6810F0AD
:10223C00400F116018BF1BB2CFE713682568181D3B
:10224C001060280601D51B6802E06806FBD51B88C8
:10225C006F2914BF0A2208225248002184F8431027
:10226C006568002DA560C0F29580216821F00401FD
:10227C002160002B3DD1002D40F08E806546082A50
:10228C000BD12368DB0708D5236962689A42DEBF4D
:10229C00302305F8013C05F1FF35ACEB0503236158
:1022AC00CDF800803B4603AA21463046FFF7F6FEE8
:1022BC0001304DD14FF0FF3005B0BDE8F083394807
:1022CC0084F84510136821681D1D1B6815600A06EB
:1022DC000BD5CA0744BF41F0200121601BB922680D
:1022EC0022F0200222601022B7E74D0648BF9BB2B5
:1022FC00EFE76546B3FBF2F102FB1133C35C05F863
:10230C00013D0B460029F5D1B9E713682568181D66
:10231C006169106028061B6801D5196002E06A0625
:10232C00FBD51980002365462361B9E71368191D95
:10233C0011601D6862680021284600F037F808B16A
:10234C00401B606063682361002384F84330A7E777
:10235C0023692A4639463046C0470130AAD0236843
:10236C009B0713D4E068039B9842B8BF1846A3E7B9
:10237C0001234A4639463046C04701309AD00135D0
:10238C00E368039A9B1AAB42F2DCEBE7002504F1FD
:10239C001909F5E7002BACD1037804F1420584F858
:1023AC0042306CE7694E00087A4E000810B5C9B28D
:1023BC0002449042034601D1002303E01C78013013
:1023CC008C42F6D1184610BD10B5431E0A449142FA
:1023DC0000D110BD11F8014B03F8014FF7E788420B
:1023EC0010B501EB020307D8421E99420AD011F82E
:1023FC00014B02F8014FF8E78342F5D98118D21A44
:10240C00D34200D110BD13F8014D01F8014DF7E78F
:10241C0038B50546002943D051F8043C0C1F002B5D
:10242C00B8BFE41800F0D0F81E4A1368104633B950
:10243C00636014602846BDE8384000F0C6B8A3427B
:10244C000BD921686218934201BF1A685B68521855
:10245C00226063600460EDE713465A680AB1A24239
:10246C00FAD919685818A0420BD1206801445818A1
:10247C0082421960DED110685268014419605A60BA
:10248C00D8E702D90C232B60D4E7206821188A42A4
:10249C0001BF116852680918216062605C60C9E76D
:1024AC0038BD00BFAC00002070B5CD1C25F0030575
:1024BC0008350C2D38BF0C25002D064601DBA94232
:1024CC0003D90C233360002070BD00F07DF8214A45
:1024DC001468214691B9204C23681BB9304600F092
:1024EC0063F820602946304600F05EF8431C24D186
:1024FC000C233046336000F068F8E4E70B685B1B94
:10250C0018D40B2B0FD90B60CC18CD50304600F0E3
:10251C005CF804F10B00231D20F00700C31AD3D084
:10252C005A42E250D0E74B688C4216BF636013608E
:10253C000C46EBE70C464968CCE7C41C24F00304BA
:10254C00A04205D0211A304600F02EF80130CFD031
:10255C002560DBE7AC000020B0000020F8B5074692
:10256C0014460E4621B9BDE8F8401146FFF79CBF52
:10257C0022B9FFF74DFF25462846F8BD00F026F896
:10258C00A0420FD221463846FFF78EFF05460028A1
:10259C00F2D031462246FFF717FF31463846FFF797
:1025AC0037FFE9E73546E7E738B50023054C054624
:1025BC0008462360FFF7B6FA431C02D1236803B127
:1025CC002B6038BDB40100207047704751F8043CB3
:1025DC00181F002BBCBF0B58C0187047F8B500BFB4
:1025EC00F8BC08BC9E467047F8B500BFF8BC08BCE8
:0425FC009E46704740
:1026000002030405060708090A0B0C0D0E0F101033
:102610000102000002030405060708090A0B0C0D5D
:102620000E0F10100102000000000000000000006A
:10263000000000000000000000000000000000009A
:10264000000000000000000000000000000000008A
:10265000000000000000000000000000E003E003B4
:10266000E003E003E003E003E003E003C003C00392
:10267000C001C001C001C001C00100000000000095
:10268000E003E003E00300000000000000000000A1
:102690003C1E3C1E3C1E3C1E3C1E3C1E3C1E0000C4
:1026A000000000000000000000000000000000002A
:1026B000000000000000000000000000000000001A
:1026C00000000000CE01CE03DE039E039C039C07A6
:1026D000FF3FFF7F3807380F780F780F780EFFFF26
:1026E000FFFFF01EF01CE01CE03CE03DE039000084
:1026F0000000000000000000FC03FE0FEE1FE01EC3
:10270000E01EE01EE01EE01FE00FE007F003FC010A
:10271000FE01FE01FE01FE01FE01FE01FE3DFC3F49
:10272000F00FE001E001000000000000033E07F7A9
:102730008FE78EE79EE3BCE3B8E7F8E7F0F7E03F0A
:10274000C001FF03FF07F307F30FF31EF33CF33859
:10275000F3787FF03FE00000000000000000000080
:10276000E007F80F780F781F781F781F780FF00FA9
:10277000E00F801FC37FC3FBE7F3F7F1F7F0FFF033
:102780007FF03EF87F7CFF3FEF1F0000000000005D
:1027900000000000E003E003E003E003E003C00307
:1027A000C001000000000000000000000000000068
:1027B0000000000000000000000000000000000019
:1027C00000000000000000003F007C00F001E0017C
:1027D000C003C00780078007800F000F000F000FA5
:1027E000000F000F000F800F80078007C007C00395
:1027F000E001F0017C003F000F000000007E001FA0
:10280000C007C003E001F001F000F000F80078001C
:1028100078007800780078007800F800F000F00088
:10282000F001E001C003C007001F007E0078000037
:10283000E003C003C001CE39FF3F7F3F2003700398
:10284000F807780F3C1F3806000000000000000069
:102850000000000000000000000000000000000078
:102860000000000000000000000000000000000068
:10287000C001C001C001C001C001C001C001FFFF13
:10288000FFFFC001C001C001C001C001C0010000C4
:102890000000000000000000000000000000000038
:1028A0000000000000000000000000000000000028
:1028B00000000000000000000000E003E003E0036F
:1028C000E003E001E001E001C0018003000000003E
:1028D00000000000000000000000000000000000F8
:1028E0000000FE3FFE3F000000000000000000006E
:1028F00000000000000000000000000000000000D8
:1029000000000000000000000000000000000000C7
:1029100000000000000000000000000000000000B7
:102920000000E003E003E003E0030000000000001B
:10293000000000000F000F001E001E003C003C00C5
:1029400078007800F000F000E001E001C003C0036F
:1029500080078007000F000F001E001E003C003C97
:102960000078007800F00000F007F80F7C1F3E3E72
:102970001E3C1F7C1F7C0F780F780F780F780F7824
:102980000F780F781F7C1F7C1E3C3E3E7C1FF80F8B
:10299000F00700000000000000000000F000F00759
:1029A000F03FF03FF001F001F001F001F001F00123
:1029B000F001F001F001F001F001F001F001F0018F
:1029C000F001FF3FFF3F000000000000000000009A
:1029D000E00FF83F7C3C3C003E003E003E003C00E7
:1029E0003C007C00F800F001E003C0078007000F06
:1029F000001E003E003CFE3FFE3F000000000000C5
:102A000000000000F00FF81F7C1C3E003E003E005E
:102A10003C003C00F800F00FF80F7C003E001E0068
:102A20001E001E001E003E007C1CF81FE01F000060
:102A300000000000000000007800F800F800F80135
:102A4000F803F807F807780F781E781E783C787836
:102A50007878FFFFFFFF7800780078007800780032
:102A6000780000000000000000000000FC1FFC1FB8
:102A7000FC1F001E001E001E001E001EE01FF81F8F
:102A8000FC007C003E003E001E003E003E003C007C
:102A90007C1CF81FE01F0000000000000000000088
:102AA000FC01FE078E0F001F001E003E003C003C94
:102AB000F83DFC3F3E7F1F7E0F3C0F3C0F3C0F3C20
:102AC0000F3E1F1E3E1FFC0FF00300000000000021
:102AD00000000000FF3FFF3FFF3F0F001E001E00F1
:102AE0003C0038007800F000F000E001E001C00395
:102AF000C0038007800F800F000F001F001F000021
:102B00000000000000000000F807FC0F3E1F1E1E22
:102B10001E3E1E3E1E1E3C1FF80FF007F80FFC1E47
:102B20003E3E1F3C1F7C0F7C0F7C1F3C3E3FFC1F2A
:102B3000F00700000000000000000000F007F80FA0
:102B40007C1E3E3C1E3C1F7C1F7C1F7C1F7C1F3C50
:102B50003F3EFF1FEF071F001E001E003E003C000F
:102B6000F838F03FE01F0000000000000000000007
:102B7000000000000000000000000000E003E0038F
:102B8000E003E0030000000000000000000000007F
:102B90000000E003E003E003E003000000000000A9
:102BA0000000000000000000000000000000000025
:102BB000E003E003E003E003000000000000000089
:102BC000000000000000E003E003E003E003E00198
:102BD000E001E001C00380030000000000000000ED
:102BE0000000000003000F003F00FC00F003C00FD6
:102BF000003F00FE003FC00FF003FC003F000F004D
:102C000003000000000000000000000000000000C1
:102C100000000000000000000000000000000000B4
:102C2000FFFFFFFF000000000000FFFFFFFF0000AC
:102C30000000000000000000000000000000000094
:102C400000000000000000000000000000E000F8AC
:102C5000007E801FE007F8017E001F007E00F80163
:102C6000E007801F007E00F800E000000000000088
:102C700000000000F01FFC3F3E381F381F381E00C8
:102C80001E003C007800F000E001C003C003C00754
:102C9000C007000000000000C007C007C007000018
:102CA0000000000000000000F803FE0F1E1F0F3E92
:102CB0007F3CFF78EF79C773C7F38FF38FF38FF300
:102CC0009FF39FF3FF73FF7BF779003C1C1FFC0F02
:102CD000F8030000000000000000000000000000F9
:102CE0000000E003E003F007F007F007780F780F2B
:102CF0007C0E3C1E3C1E3E3CFE3FFF3F1F780F7883
:102D00000FF007F007F000000000000000000000D6
:102D1000000000000000F83FFC3F3E3C1E3C1E3C13
:102D20001E3C3E3C7C3CF03FF83F7E3C1F3C1F3C41
:102D30000F3C0F3C1F3CFE3FF83F0000000000002E
:102D400000000000000000000000FF01FF07871FD7
:102D5000003E003C007C0078007800780078007825
:102D6000007C007C003E003F831FFF07FF01000046
:102D70000000000000000000000000000000F07FE4
:102D8000FC7F7E781F781F780F780F780F780F7888
:102D90000F780F780F780F781F781E787E78F87F7D
:102DA000E07F0000000000000000000000000000C4
:102DB0000000FF3FFF3F003E003E003E003E003E61
:102DC000003EFE3FFE3F003E003E003E003E003E15
:102DD000003EFF3FFF3F0000000000000000000039
:102DE000000000000000FF1FFF1F001E001E001E4D
:102DF000001E001E001EFF1FFF1F001E001E001EE3
:102E0000001E001E001E001E001E0000000000002C
:102E100000000000000000000000FE03FF0F871FFD
:102E2000003E007C007C007800F800F87FF87FF816
:102E30000F780F7C0F7C0F3E8F1FFF0FFE030000EB
:102E400000000000000000000000000000001F7CE7
:102E50001F7C1F7C1F7C1F7C1F7C1F7C1F7CFF7FB7
:102E6000FF7F1F7C1F7C1F7C1F7C1F7C1F7C1F7CA7
:102E70001F7C0000000000000000000000000000B7
:102E80000000FF3FFF3FE003E003E003E003E00357
:102E9000E003E003E003E003E003E003E003E0031A
:102EA000E003FF3FFF3F00000000000000000000C3
:102EB000000000000000FC1FFC1F7C007C007C0068
:102EC0007C007C007C007C007C007C007C007C0022
:102ED00078007800F838F03FC03F000000000000A4
:102EE000000000000000000000001F3C1E3C3C3CB5
:102EF000783CF03CE03DE03FC03F803FC03FE03FDA
:102F0000F03DF03C783C7C3C3E3C1F3C0F3C0000DC
:102F10000000000000000000000000000000003E73
:102F2000003E003E003E003E003E003E003E003EB1
:102F3000003E003E003E003E003E003E003EFF3FA1
:102F4000FF3F000000000000000000000000000043
:102F500000001FF81FFC1FFC3FFE3FFE3FFE7FFFEF
:102F600077FF77FFF7F7E7F7E7F3E7F3C7F307F044
:102F700007F007F007F0000000000000000000006C
:102F80000000000000000F7C0F7C0F7E0F7F0F7F82
:102F90008F7F8F7FCF7FEF7BEF79FF79FF78FF788F
:102FA0007F783F783F781F781F780000000000008E
:102FB00000000000000000000000F007FC1F3E3E83
:102FC0001F7C0F780F780FF80FF80FF80FF80FF835
:102FD0000FF80F780F781F7C3E3EFC1FF0070000B3
:102FE0000000000000000000000000000000FC3FA6
:102FF000FF3F1F3E0F3E0F3E0F3E0F3E1F3E3F3E28
:10300000FC3FF03F003E003E003E003E003E003EE2
:10301000003E000000000000000000000000000072
:103020000000F007FC1F3E3E1F7C0F780F780FF862
:103030000FF80FF80FF80FF80FF80F780F781F7CC4
:103040003E3EFC1FF8077C003F000F00030000001D
:10305000000000000000F03FFC3F7E3C3E3C1E3C78
:103060001E3C3E3C3C3CFC3CF03FE03FF03DF83C2D
:103070007C3C3E3C1E3C1F3C0F3C0000000000001E
:1030800000000000000000000000FC07FE1F0E3ED4
:10309000003C003C003C003EC01FF80FFE037F00D8
:1030A0001F000F000F001F203E3CFC3FF01F0000E0
:1030B0000000000000000000000000000000FFFF12
:1030C000FFFFE003E003E003E003E003E003E003CD
:1030D000E003E003E003E003E003E003E003E003D8
:1030E000E0030000000000000000000000000000FD
:1030F00000000F7C0F7C0F7C0F7C0F7C0F7C0F7C03
:103100000F7C0F7C0F7C0F7C0F7C0F7C1E3C1E3CC9
:103110003E3EFC1FF0070000000000000000000021
:1031200000000000000007F007F007F80F780F7CA0
:103130001E3C1E3C1E3E3C1E3C1F781F780FF80FA5
:10314000F007F007F007E003E003000000000000D4
:103150000000000000000000000003E003F003F0A6
:1031600007F0E7F3E7F3E7F3E773F77BF77FFF7F1A
:103170007F7F7F7F7E7F7E3F3E3E3E3E3E3E000025
:10318000000000000000000000000000000007F840
:103190000F7C1E3E3E3E3C1FF80FF007E007E003A9
:1031A000E003F007F80F7C0F7C1E3E3C1F780F7881
:1031B0000FF0000000000000000000000000000010
:1031C000000007F807780F7C1E3C1E3E3C1F780F5E
:1031D000F80FF007E003E003E003E003E003E0039F
:1031E000E003E003E0030000000000000000000036
:1031F000000000000000FF7FFF7F0F001F003E0067
:103200007C00F800F000E001E003C007800F000F31
:10321000001E003E007CFF7FFF7F000000000000DA
:1032200000000000FF0780078007800780078007F5
:103230008007800780078007800780078007800756
:103240008007800780078007800780078007800746
:103250008007FF07FF07000000780078003C003C73
:10326000001E001E000F000F80078007C003C00370
:10327000E001E001F000F000780078003C003C0044
:103280001E001E000F000F0007000000F07FF0007E
:10329000F000F000F000F000F000F000F000F000AE
:1032A000F000F000F000F000F000F000F000F0009E
:1032B000F000F000F000F000F000F07FF07F000080
:1032C000C000C001C001E003E003F007F007780789
:1032D000780F380F3C1E3C1E1E3C1E3C0F380F78EA
:1032E000077800000000000000000000000000005F
:1032F00000000000000000000000000000000000CE
:1033000000000000000000000000000000000000BD
:103310000000000000000000000000000000FFFFAF
:10332000FFFF000000000000F000000000000000AF
:10333000000000000000000000000000000000008D
:10334000000000000000000000000000000000007D
:10335000000000000000000000000000000000006D
:103360000000000000000000F80FFC3F7C3C3E0025
:103370003E003E00FE07FE1F3E3E3E7C3E783E7C09
:103380007E7CFF3FCF1F0000000000000000000017
:10339000003C003C003C003C003C003CF83DFE3F53
:1033A0003E3F1F3E0F3C0F3C0F3C0F3C0F3C0F3C81
:1033B0001F3C1E3C3E3FFC3FF03B00000000000075
:1033C00000000000000000000000000000000000FD
:1033D000FE03FF0F871F003E003E003C007C007C88
:1033E000007C003C003E003E871FFF0FFE030000F4
:1033F00000000000000000001F001F001F001F0051
:103400001F001F00FF07FF1F3F3E1F3C1F7C1F7C4C
:103410001F7C1F781F781F7C1F7C3F3C7F3EFF1F57
:10342000DF0F0000000000000000000000000000AE
:103430000000000000000000F803FC0F3E1F1E3ECD
:103440001F3C1F7CFF7FFF7F007C007C003C003E18
:10345000071FFF0FFE030000000000000000000037
:10346000FF01E103C003C007C007C007FF7FFF7F64
:10347000C007C007C007C007C007C007C007C00714
:10348000C007C007C007C007C00700000000000059
:10349000000000000000000000000000000000002C
:1034A000EF07FF1F7F3E1F3C1F7C1F7C1F781F788C
:1034B0001F781F7C1F7C3F3C7F3EFF1FDF0F1E00DD
:1034C0001E001E007C38F83F003C003C003C003CE5
:1034D000003C003CFC3DFE3F9E3F1F3F1F3E1F3C0B
:1034E0001F3C1F3C1F3C1F3C1F3C1F3C1F3C1F3C04
:1034F0001F3C00000000000000000000F001F0018F
:103500000000000000000000E07FE07FE001E0013B
:10351000E001E001E001E001E001E001E001E001A3
:10352000E001E001E00100000000000000000000F8
:10353000F800F8000000000000000000F83FF83F2D
:10354000F800F800F800F800F800F800F800F800BB
:10355000F800F800F800F800F800F800F800F000B3
:10356000F071E07F003C003C003C003C003C003C33
:103570001F3C3E3C7C3CF83CF03DE03DC03FC03F42
:10358000E03FF03DF83C7C3C3E3C1F3C1F3C0000D3
:103590000000000000000000F07FF001F001F001E9
:1035A000F001F001F001F001F001F001F001F00193
:1035B000F001F001F001F001F001F001F001F00183
:1035C000F00100000000000000000000000000000A
:1035D00000000000000000009EF7FFFFFFFFFFFF5C
:1035E000E7FBE7F9C7F1C7F1C7F1C7F1C7F1C7F1C9
:1035F000C7F1C7F1C7F100000000000000000000A3
:10360000000000000000000000000000FC3DFE3F44
:103610009E3F1F3F1F3E1F3C1F3C1F3C1F3C1F3C4B
:103620001F3C1F3C1F3C1F3C1F3C000000000000D3
:10363000000000000000000000000000000000008A
:10364000F007FC1F3E3E1F3C1F7C0F780F780F7861
:103650000F780F781F7C1F3C3E3EFC1FF0070000D8
:10366000000000000000000000000000000000005A
:1036700000000000F83DFE3F3E3F1F3E0F3C0F3C68
:103680000F3C0F3C0F3C0F3C1F3C1E3E3E3FFC3F9F
:10369000F83F003C003C003C003C003C00000000C7
:1036A0000000000000000000EE07FE1F7E3E1E3CF2
:1036B0001E7C1E781E781E781E781E781E7C3E7C2E
:1036C0007E3EFE1FDE0F1E001E001E001E001E009E
:1036D0000000000000000000000000007F1FFF1F2E
:1036E000E71FC71F871F001F001F001F001F001FAD
:1036F000001F001F001F001F001F0000000000002F
:1037000000000000000000000000000000000000B9
:10371000FC07FE1F0E1E003E003E003FE01FFC07A0
:10372000FE003E001E001E003E3CFC3FF01F00005D
:103730000000000000000000000000000000800702
:1037400080078007FF7FFF7F800780078007800753
:10375000800780078007800780078007C007FF0376
:10376000FF01000000000000000000000000000059
:1037700000000000000000001E3C1E3C1E3C1E3CE1
:103780001E3C1E3C1E3C1E3C1E3C1E3C3E3C7E3CE9
:10379000FE3EFE1FDE0F00000000000000000000E3
:1037A00000000000000000000000000007F00F789B
:1037B0000F781E3C1E3C1E3E3C1E3C1E780F780FB0
:1037C000F00FF007F007E003E00300000000000046
:1037D00000000000000000000000000000000000E9
:1037E00003F0E3F1E3F3E7F3F7F3F7F3F77F777F22
:1037F0007F7F7F7F7F7F3E3E3E3E3E3E3E3E0000DF
:1038000000000000000000000000000000000000B8
:10381000000000000F7C1E3E3C3E3C1FF80FF007EE
:10382000F007E003F007F807F80F7C1E3E3E1F3C50
:103830001F780000000000000000000000000000F1
:10384000000000000000000007F80F780F7C1E3C0D
:103850001E3C3C1E3C1E3C1F780FF80FF007F00783
:10386000E003E003C003C003C0038007800F007FB4
:10387000000000000000000000000000FF3FFF3FCC
:103880001F003E007C00F800F001E003C007800F3D
:10389000001F001E003CFF7FFF7F000000000000B3
:1038A00000000000FE01E003C003C003C003C0032A
:1038B000E001E001E001C001C003803F803FC003A0
:1038C000C001E001E001E001C003C003C003C00388
:1038D000E003FE017E000000C001C001C001C00184
:1038E000C001C001C001C001C001C001C001C001D0
:1038F000C001C001C001C001C001C001C001C001C0
:10390000C001C001C001C001C0010000C03FE00310
:10391000E001E001E001E001C001C003C003C0011B
:10392000E001FE00FE00E001C001C003C003C001D1
:10393000E001E001E001E001E003C03F003F0000E2
:103940000000000000000000000000000000000077
:10395000000000000000073FC77FE773FFF17EF023
:103960000000000000000000000000000000000057
:103970000000000000000000000000000000000047
:103980000000000000000000000000000000000037
:1039900000000000000000000000000C000C000C03
:1039A000000C000C000C000C000C000C000C000CB7
:1039B0000000000C000C0000000000000000001BD4
:1039C000001B001B001B001B00000000000000008B
:1039D00000000000000000000000000000000000E7
:1039E00000008019801980198019C07FC07F80195C
:1039F0000033C07FC07F003300330033003300004A
:103A0000000000000000001E003F8075806500740B
:103A1000003C001E00078005806580658075003FC2
:103A2000001E0004000400000000007000D840D810
:103A3000C0D880D900730006000C801BC036C06659
:103A4000C046C00680030000000000000000001E09
:103A5000003F003300330033001E000CC03CC06642
:103A6000806380618063C03E801C00000000000015
:103A70000000000C000C000C000C000C000000000A
:103A80000000000000000000000000000000000036
:103A90000000000080000001000300060006000492
:103AA000000C000C000C000C000C000C00040006C4
:103AB0000006000300018000002000100018000C28
:103AC000000C0004000600060006000600060006C2
:103AD0000004000C000C0018001000200000000C76
:103AE000002D003F001E0033000000000000000019
:103AF00000000000000000000000000000000000C6
:103B0000000000000000000C000C000C000CC0FFC6
:103B1000C0FF000C000C000C000C000000000000B6
:103B20000000000000000000000000000000000095
:103B30000000000000000000000000000000000C79
:103B4000000C000400040008000000000000000059
:103B500000000000000000000000001E001E000029
:103B60000000000000000000000000000000000055
:103B70000000000000000000000000000000000045
:103B8000000000000000000C000C0000000000001D
:103B90000000000300030003000600060006000604
:103BA000000C000C000C000C00180018001800009D
:103BB000000000000000001E003F003380618061B3
:103BC0008061806D806D8061806180610033003F25
:103BD000001E00000000000000000006000E001E95
:103BE0000036002600060006000600060006000655
:103BF0000006000600060000000000000000001E95
:103C0000003F807380618061800100030006000C2A
:103C1000001800300060807F807F000000000000FE
:103C20000000001C003E006300630003000E000E55
:103C300000038001800180618073003F001E00004E
:103C40000000000000000006000E000E001E001E16
:103C50000016003600360066807F807F0006000672
:103C600000060000000000000000007F007F0060F0
:103C700000600060006E007F8063800180018061D1
:103C80008073003F001E0000000000000000001EC6
:103C9000003F803380610060006E007F8073806130
:103CA000806180618033003F001E00000000000042
:103CB0000000807F807F8001000300030006000673
:103CC000000C000C000C0008001800180018000080
:103CD000000000000000001E003F806380618061E2
:103CE0000021001E003F8061806180618061003F93
:103CF000001E0000000000000000001E003F0073D6
:103D00008061806180618073803F801D800180615F
:103D10000073003F001E00000000000000000000D3
:103D2000000000000000000C000C0000000000007B
:103D3000000000000000000C000C0000000000006B
:103D4000000000000000000000000000000C000C5B
:103D500000000000000000000000000C000C000447
:103D60000004000800000000000000008000800344
:103D7000000E003800600038000E80038000000054
:103D80000000000000000000000000000000000033
:103D90000000807F807F00000000807F807F000027
:103DA0000000000000000000000000000000000013
:103DB0000000000000400070001C000780010007A8
:103DC000001C007000400000000000000000000027
:103DD0000000001F803FC071C060C000C0018003B0
:103DE0000007000E000C000C0000000C000C00008E
:103DF000000000000000001E003F803180718063E1
:103E0000806F806D806D806F806700600032003E43
:103E1000001C0000000000000000000E000E001B4F
:103E2000001B001B001B80318031803F803F8031B0
:103E3000C060C060C0600000000000000000007CA6
:103E4000007E0063006300630063007E007E006309
:103E5000806180618063007F007E000000000000C0
:103E60000000001E003F8031806100600060006043
:103E700000600060006080618031003F001E000033
:103E8000000000000000007C007F00638063806110
:103E90008061806180618061806100630063007E79
:103EA000007C0000000000000000807F807F006038
:103EB000006000600060007F007F006000600060C4
:103EC0000060807F807F0000000000000000807F95
:103ED000807F0060006000600060007F007F006005
:103EE00000600060006000600060000000000000F2
:103EF0000000001E003F80318061006000600060B3
:103F000080638063806180618031803F001E00009B
:103F1000000000000000806180618061806180613C
:103F20008061807F807F806180618061806180614D
:103F300080610000000000000000003F003F000C16
:103F4000000C000C000C000C000C000C000C000C11
:103F5000000C003F003F0000000000000000800156
:103F60008001800180018001800180018001800149
:103F7000806180618073003F001E0000000000002F
:103F80000000C0608061006300660066006C00781D
:103F9000007C00660066006380618061C060000094
:103FA0000000000000000060006000600060006031
:103FB0000060006000600060006000600060807F62
:103FC000807F0000000000000000C071C071C07B55
:103FD000C07AC06AC06AC06EC064C060C060C060A1
:103FE000C060C060C0600000000000000000807180
:103FF0008071807980798079806D806D806D806539
:104000008067806780678063806300000000000035
:104010000000001E003F003380618061806180618C
:1040200080618061806180610033003F001E00007C
:10403000000000000000007E007F806380618061DE
:1040400080618063007F007E00600060006000602F
:1040500000600000000000000000001E003F003370
:10406000806180618061806180618061806580673E
:104070000033803F401E0000000000000000007E72
:10408000007F8063806180618063007F007E0066C6
:104090000063006380618061C06000000000000078
:1040A0000000000E001F8031803100300038001EFB
:1040B00000078003806180618031003F001E0000A6
:1040C000000000000000C0FFC0FF000C000C000C4E
:1040D000000C000C000C000C000C000C000C000C80
:1040E000000C000000000000000080618061806121
:1040F00080618061806180618061806180618061B8
:104100008073003F001E0000000000000000C0603F
:10411000C060C060803180318031001B001B001BFB
:10412000001B000E000E000E000400000000000046
:104130000000C0C0C0C0C0C0C0C0C0C0C0CC804CA7
:10414000804C805E8052805280738061806100006C
:10415000000000000000C0C0806080610033003BB0
:10416000001E000C000C001E001F003B80718061CF
:10417000C0C00000000000000000C0C0806180617D
:1041800000330033001E001E000C000C000C000C5D
:10419000000C000C000C0000000000000000803F3C
:1041A000803F8001000300030006000C000C001893
:1041B000001800300060807F807F00000000000059
:1041C000000F000F000C000C000C000C000C000C89
:1041D000000C000C000C000C000C000C000C000C7F
:1041E000000F000F0000001800180018000C000C51
:1041F000000C000C00060006000600060003000389
:104200000003000000000000001E001E0006000663
:10421000000600060006000600060006000600066E
:104220000006000600060006001E001E0000000C2E
:10423000000C001E0012003300338061806100001A
:10424000000000000000000000000000000000006E
:10425000000000000000000000000000000000005E
:10426000000000000000000000000000000000004E
:10427000E0FF0000000000380018000C0000000003
:10428000000000000000000000000000000000002E
:10429000000000000000000000000000000000001E
:1042A0000000001F803F80618001801F803F80618F
:1042B0008063807FC03800000000000000000060C4
:1042C000006000600060006E007F8073806180612C
:1042D000806180618073007F006E0000000000003C
:1042E00000000000000000000000001E003F80737E
:1042F00080610060006080618073003F001E0000EC
:104300000000000000008001800180018001801D0C
:10431000803F807380618061806180618073803FB5
:10432000801D0000000000000000000000000000F0
:104330000000001E003F00738061807F807F00606E
:104340008071003F001E0000000000000000C00758
:10435000C00F000C000C807F807F000C000C000C54
:10436000000C000C000C000C000C00000000000011
:104370000000000000000000801D803F807380610D
:104380008061806180618073803F801D80018063D7
:10439000007F003E00000060006000600060006F71
:1043A000807F8071806180618061806180618061D7
:1043B0008061000000000000000000060006000010
:1043C0000000003E003E0006000600060006000653
:1043D00000060006000600000000000000060006BF
:1043E00000000000003E003E000600060006000639
:1043F000000600060006000600060046007E003C9F
:104400000000006000600060006080610063006682
:10441000006C007C0076006300638061C060000077
:10442000000000000000003E003E000600060006FE
:10443000000600060006000600060006000600064C
:104440000006000000000000000000000000000066
:10445000000080DDC0FFC0CEC0CCC0CCC0CCC0CC82
:10446000C0CCC0CCC0CC00000000000000000000A8
:10447000000000000000006F807F8071806180611B
:1044800080618061806180618061000000000000C7
:1044900000000000000000000000001E003F8073CC
:1044A00080618061806180618073003F001E000038
:1044B000000000000000000000000000006E007F0F
:1044C000807380618061806180618073007F006E95
:1044D000006000600060006000000000000000005C
:1044E000801D803F80738061806180618061807306
:1044F000803F801D8001800180018001000000005C
:104500000000000000000067803F003900300030EC
:1045100000300030003000300030000000000000AB
:1045200000000000000000000000001E803F8061CD
:104530000060007F803F80018061007F001E0000DE
:104540000000000000000000000800180018007FB4
:10455000007F001800180018001800180018801FAD
:10456000800F0000000000000000000000000000BC
:104570000000806180618061806180618061806114
:104580008063807F803D000000000000000000008C
:10459000000000000000C060803180318031001BCD
:1045A000001B001B000E000E0006000000000000B3
:1045B0000000000000000000000080DD80DD80DDE4
:1045C00000550055005500770077002200220000BA
:1045D00000000000000000000000000000008061FA
:1045E00000330033001E000C000C001E00330033AB
:1045F00080610000000000000000000000000000DA
:1046000080618061803100330033001B001B001B80
:10461000000E000E000E001C007C00700000000068
:10462000000000000000C07FC07F80010003000682
:10463000000C00180030C07FC07F000000000000A8
:104640008003800700060006000600060006000E34
:10465000001C001C000E00060006000600060006F6
:10466000800780030006000600060006000600061C
:10467000000600060006000600060006000600060A
:1046800000060006000600060038003C000C000C86
:10469000000C000C000C000E00070007000E000CC0
:1046A000000C000C000C000C003C00380000000066
:1046B000000000000000000000008038807F0047FC
:1046C00000000000000000000000000000000000EA
:1046D00000000000000000000000000000000000DA
:1046E000000000000010001000100010001000106A
:1046F0000000001000000000002800280028000032
:104700000000000000000000000000000024002461
:10471000007C00240048007C0048004800000000A5
:104720000038005400500038001400540054003881
:1047300000100000002000540058003000280054F1
:1047400000140008000000000010002800280010DD
:104750000034004800480034000000000010001041
:104760000010000000000000000000000000000039
:104770000008001000200020002000200020002061
:1047800000100008002000100008000800080008C1
:104790000008000800100020001000380010002859
:1047A0000000000000000000000000000000000009
:1047B00000100010007C001000100000000000003D
:1047C00000000000000000000000000000000010D9
:1047D0000010001000000000000000000000003881
:1047E00000000000000000000000000000000000C9
:1047F0000000000000000010000000000008000899
:104800000010001000100010002000200000000028
:104810000038004400440054004400440044003880
:1048200000000000001000300050001000100010C8
:104830000010001000000000003800440044000494
:10484000000800100020007C000000000038004438
:1048500000040018000400040044003800000000B8
:1048600000080018002800280048007C0008000804
:1048700000000000007C00400040007800040004BC
:104880000044003800000000003800440040007878
:10489000004400440044003800000000007C000494
:1048A0000008001000100020002000200000000080
:1048B00000380044004400380044004400440038FC
:1048C000000000000038004400440044003C0004A4
:1048D000004400380000000000000000001000004C
:1048E00000000000000000100000000000000000B8
:1048F0000000001000000000000000100010001078
:1049000000000000000C003000400030000C0000EF
:1049100000000000000000000000007C0000007C9F
:10492000000000000000000000000000006000180F
:10493000000400180060000000000000003800447F
:10494000000400080010001000000010000000002B
:1049500000380044004C0054005C00400040003827
:104960000000000000100028002800280028007C1B
:104970000044004400000000007800440044007837
:104980000044004400440078000000000038004467
:10499000004000400040004000440038000000009B
:1049A0000070004800440044004400440048007087
:1049B00000000000007C00400040007C00400040FF
:1049C0000040007C00000000007C004000400078B7
:1049D000004000400040004000000000003800445B
:1049E00000400040005C004400440038000000002B
:1049F000004400440044007C00440044004400445F
:104A0000000000000038001000100010001000101E
:104A1000001000380000000000040004000400043E
:104A20000004000400440038000000000044004876
:104A300000500060005000480048004400000000A2
:104A40000040004000400040004000400040007C2A
:104A5000000000000044006C006C0054004400445E
:104A6000004400440000000000440064006400545E
:104A70000054004C004C004400000000003800448A
:104A8000004400440044004400440038000000009A
:104A9000007800440044004400780040004000409A
:104AA000000000000038004400440044004400447A
:104AB0000054003800040000007800440044004422
:104AC000007800480048004400000000003800441E
:104AD00000400030000800040044003800000000DE
:104AE000007C0010001000100010001000100010DA
:104AF000000000000044004400440044004400441E
:104B00000044003800000000004400440044002835
:104B1000002800280010001000000000004400449D
:104B2000005400540054006C0028002800000000CD
:104B3000004400280028001000100028002800442D
:104B4000000000000044004400280028001000106D
:104B50000010001000000000007C0004000800109D
:104B6000001000200040007C000000000018001031
:104B700000100010001000100010001000100018AD
:104B80000020002000100010001000100008000895
:104B90000000000000300010001000100010001095
:104BA0000010001000100030001000280028004401
:104BB00000000000000000000000000000000000F5
:104BC000000000000000000000000000000000FEE7
:104BD00000200010000000000000000000000000A5
:104BE000000000000000000000380044003C0044C9
:104BF000004C0034000000000040004000580064F9
:104C00000044004400640058000000000000000060
:104C1000003800440040004000440038000000001C
:104C2000000400040034004C00440044004C0034F4
:104C3000000000000000000000380044007C00403C
:104C40000044003800000000000C0010007C001040
:104C50000010001000100010000000000000000014
:104C60000034004C00440044004C00340004007840
:104C700000400040005800640044004400440044E8
:104C80000000000000100000007000100010001074
:104C90000010001000000000001000000070001064
:104CA0000010001000100010001000E00040004054
:104CB0000048005000600050004800440000000020
:104CC0000070001000100010001000100010001004
:104CD0000000000000000000007800540054005460
:104CE0000054005400000000000000000058006460
:104CF00000440044004400440000000000000000A4
:104D00000038004400440044004400380000000023
:104D10000000000000580064004400440064005893
:104D200000400040000000000034004C00440044FB
:104D3000004C00340004000400000000005800642F
:104D40000040004000400040000000000000000063
:104D50000038004400300008004400380000000023
:104D600000200020007800200020002000200018F3
:104D70000000000000000000004400440044004423
:104D8000004C00340000000000000000004400441B
:104D9000002800280028001000000000000000008B
:104DA000005400540054006C00280028000000004B
:104DB00000000000004400280010001000280044FB
:104DC000000000000000000000440044002800280B
:104DD000001000100010006000000000007C0008BF
:104DE000001000200040007C0000000000180010AF
:104DF000001000100020002000100010001000180B
:104E00000010001000100010001000100010001022
:104E10000010001000300010001000100008000802
:104E200000100010001000300000000000000074AE
:104E3000004C000000000000000000000000000026
:104E4000000000000102030406070809000000003A
:104E50000102030425690000232D302B2000686C1B
:104E60004C0065666745464700303132333435368D
:104E700037383941424344454600303132333435C6
:0C4E8000363738396162636465660000F3
:044E8C0031010008E8
:044E90000D01000808
:104E94000100000010000000101A0000282600087D
:104EA4000B12000074390008070A0000D0460008FD
:104EB40000A24A04280000200000000000000000B6
:104EC40000000000000000000000000000000000DE
:104ED40000000000000000000000000000000000CE
:104EE40000000000000000000000000000000000BE
:104EF40000000000000000000000000000000000AE
:104F0400000000000000000000000000000000009D
:084F1400000000000000000095
:0400000508001D25AD
:00000001FF
